:060000000A128A11122809
:10000800FE00030EF7000408F8000A08F90083123E
:1000180003137F08FA000A168A11062F0A168A1592
:100028000E2C0030831203136402031D25280030B0
:100038006302031D252800306202031D2528653050
:100048006102031C28282928DD2883160313520877
:1000580083120313AB00831603135308831203138D
:10006800AC0083160313540883120313AD008316E0
:100078000317350883120313AE00831603173608D7
:1000880083120313AF008316031737088312031371
:10009800B0000A168A1118260A128A11831203134D
:1000A8002B08C6002C08C7002D08C80083160313A8
:1000B8004F0883120313AB008316031350088312EF
:1000C8000313AC0083160313510883120313AD0006
:1000D80083160317320883120313AE00831603171F
:1000E800330883120313AF008316031734088312EF
:1000F8000313B0000A168A1118260A128A118312ED
:1001080003132B08C9002C08CA002D08CB000A12BB
:100118008A1535250A128A11831203134608D4005A
:100128004708D5004808D600831603172F088312FE
:100138000313AB0083160317300883120313AC00B4
:1001480083160317310883120313AD0083160317B0
:10015800380883120313AE00831603173908831275
:100168000313AF00831603173A0883120313B00072
:100178000A168A1118260A128A11831203132B08E9
:10018800C6002C08C7002D08C8005408C900550827
:10019800CA005608CB000A128A1535250A128A1198
:1001A800831203134608DB004708DC004808DD001B
:1001B800E4280030DB004030DC00C230DD00E428F9
:1001C8000030A8004030A9004230AA005B08AB000C
:1001D8005C08AC005D08AD000A168A152F260A12C5
:1001E8008A110318F828F92802290030831203130A
:1001F800DB004030DC004230DD00022983120313AB
:100208005B08A8005C08A9005D08AA000030AB00E4
:100218004030AC00C230AD000A168A152F260A12EB
:100228008A11031818291929222900308312031367
:10023800DB004030DC00C230DD00222900308312B0
:100248000313C600B430C7004230C8008316031336
:100258004C0883120313C900831603134D08831235
:100268000313CA00831603134E0883120313CB002B
:100278000A128A1535250A128A11831203134608B1
:10028800A8004708A9004808AA005B08C6005C083F
:10029800C7005D08C80083160313580883120313A8
:1002A800C90083160313590883120313CA0083165F
:1002B80003135A0883120313CB000A128A15352533
:1002C8000A128A11831203134608AB004708AC00D0
:1002D8004808AD000A168A152F260A128A11031833
:1002E80076297729CE29831603134C088312031322
:1002F800C600831603134D0883120313C700831621
:1003080003134E0883120313C800831603135808F7
:1003180083120313A80083160313590883120313C7
:10032800A900831603135A0883120313AA000A1696
:100338008A15F7220A128A11831203132808C900A2
:100348002908CA002A08CB000A128A1535250A127C
:100358008A11831203134608D4004708D5004808B9
:10036800D6000030C600B430C7004230C800540878
:10037800C9005508CA005608CB000A128A15352547
:100388000A128A11831203134608DB004708DC00AF
:100398004808DD00831203135B08C6005C08C70029
:1003A8005D08C80083160313580883120313C90095
:1003B80083160313590883120313CA008316031301
:1003C8005A0883120313CB000A128A1535250A121C
:1003D8008A11831203134608A8004708A900480891
:1003E800AA000030AB00B430AC00C230AD000A1631
:1003F8008A152F260A128A110318032A042A382A72
:10040800003083120313C600B430C700C230C800DE
:1004180083160313580883120313A80083160313C3
:10042800590883120313A900831603135A08831269
:100438000313AA000A168A15F7220A128A118312D0
:1004480003132808C9002908CA002A08CB000A1281
:100458008A1535250A128A11831203134608DB0010
:100468004708DC004808DD00831203135B08C60058
:100478005C08C7005D08C800831603135808831278
:100488000313C90083160313590883120313CA0000
:10049800831603135A0883120313CB000A128A1512
:1004A80035250A128A11831203134608831603138B
:1004B800D50083120313470883160313D60083124B
:1004C8000313480883160313D700831203135B082A
:1004D800A8005C08A9005D08AA000A168A11EE2087
:1004E8000A128A11831203132908DA01DA07280885
:1004F800D901D9070430D300530883160313ED003C
:100508005508D8005608D9005708DA008312031393
:10051800DA1F8F2A902A9E2A6A08D3005308831666
:100528000313EC0083120313D909DA09D90A031952
:10053800DA0AA52A6B08D300530883160313EC00C4
:10054800A52A83125A0883160313E201E2078312CD
:100558000313590883160313E101E10755088312B1
:100568000313B90083160313560883120313BA0042
:1005780083160313570883120313BB000030B60019
:100588009030B7004130B8000A168A11ED220A12DD
:100598008A11831203133608A8003708A9003808FF
:1005A800AA000A168A11EE200A128A11831203136E
:1005B8002908D801D8072808D701D707D81FE52A5E
:1005C800E62AE92AD701D801E92A59300A168A11F8
:1005D80000200A128A11831203135708AF00580823
:1005E800B0000030B01BFF30B100B2000A168A110B
:1005F8007D240A128A1102300A168A1590230A12DB
:100608008A1183160313620883120313A101A10739
:1006180083160313610883120313A001A0070A16A7
:100628008A156B240A128A110800942C8316031366
:100638004B0883120313A500831603134A08831279
:100648000313A40083160313490883120313A3009A
:1006580083160313480883120313A200A6010A167F
:100668008A15D3240A128A1183120313AB002B08AC
:10067800B100B92C83160313430883120313A50092
:1006880083160313420883120313A400831603136B
:10069800410883120313A30083160313400883122F
:1006A8000313A2000430AB002B08A6000A168A1513
:1006B800D3240A128A1183120313AC002C08B10048
:1006C800B92C831603133B0883120313A500831662
:1006D80003133A0883120313A4008316031339087B
:1006E80083120313A300831603133808831203131A
:1006F800A2000830AB002B08A6000A168A15D324DE
:100708000A128A1183120313AC002C08B100B92C09
:10071800831603133F0883120313A50083160313DC
:100728003E0883120313A400831603133D088312A3
:100738000313A300831603133C0883120313A200B8
:100748000C30AB002B08A6000A168A15D3240A120F
:100758008A1183120313AC002C08B100B92C83163C
:100768000313370883120313A500831603133608EF
:1007780083120313A400831603133508831203138B
:10078800A30083160313340883120313A200103046
:10079800AB002B08A6000A168A15D3240A128A1160
:1007A80083120313AC002C08B100B92C8316031371
:1007B800330883120313A500831603133208831228
:1007C8000313A40083160313310883120313A30031
:1007D80083160313300883120313A2001430AB00EE
:1007E8002B08A6000A168A15D3240A128A11831226
:1007F8000313AC002C08B100B92CB92C83160313D1
:10080800270883120313A5008316031326088312EF
:100818000313A40083160313250883120313A300EC
:1008280083160313240883120313A2001830AB00A5
:100838002B08A6000A168A15D3240A128A118312D5
:100848000313AC002C08B100B92C6B08AB00AC0149
:10085800AD01AE012E08A5002D08A4002C08A300A8
:100868002B08A2001C30AF002F08A6000A168A1514
:10087800D3240A128A1183120313B0003008B1007E
:10088800B92C831603132B0883120313A5008316B0
:1008980003132A0883120313A400831603132908D9
:1008A80083120313A3008316031328088312031368
:1008B800A2002030AB002B08A6000A168A15D32404
:1008C8000A128A1183120313AC002C08B100B92C48
:1008D80083160313230883120313A5008316031337
:1008E800220883120313A40083160313210883121A
:1008F8000313A30083160313200883120313A20013
:100908002430AB002B08A6000A168A15D3240A1235
:100918008A1183120313AC002C08B100B92CB92C2E
:10092800831203136C08413A03196C2C033A031918
:10093800022C063A0319DA2B023A0319452C0F3A0E
:100948000319B32B193A03198C2B013A0319B92C43
:10095800033A0319292C013A03193E2B073A0319C4
:10096800652B0E3A03191A2BB92C3108031DBD2C1F
:10097800CA2C47300A168A1100200A128A1102303E
:100988000A168A1590230A128A11D72C48300A169B
:100998008A1100200A128A1102300A168A15902339
:1009A8000A128A11D72C08000A128A116F260A1215
:1009B8008A115A300A168A1100200A128A118316DF
:1009C80003134B0883120313B200831603134A0858
:1009D80083120313B1008316031349088312031308
:1009E800B00083160313480883120313AF000A16D6
:1009F8008A117D240A128A1102300A168A15902358
:100A08000A128A1153300A168A1100200A128A1112
:100A180083160313430883120313B20083160313C8
:100A2800420883120313B10083160313410883128B
:100A38000313B00083160313400883120313AF0097
:100A48000A168A117D240A128A1102300A168A159A
:100A580090230A128A1154300A168A1100200A12A9
:100A68008A11831603133B0883120313B2008316FB
:100A780003133A0883120313B100831603133908CA
:100A880083120313B0008316031338088312031369
:100A9800AF000A168A117D240A128A1102300A163A
:100AA8008A1590230A128A1150300A168A110020DA
:100AB8000A128A11831603133F0883120313B20024
:100AC800831603133E0883120313B100831603131E
:100AD8003D0883120313B000831603133C088312E6
:100AE8000313AF000A168A117D240A128A110230F4
:100AF8000A168A1590230A128A1149300A168A1191
:100B080000200A128A11831603133708831203136D
:100B1800B20083160313360883120313B100831639
:100B28000313350883120313B00083160313340824
:100B380083120313AF000A168A117D240A128A1140
:100B480002300A168A1590230A128A1144300A16AE
:100B58008A1100200A128A1183160313330883129C
:100B68000313B20083160313320883120313B10070
:100B780083160313310883120313B000831603137B
:100B8800300883120313AF000A168A117D240A1253
:100B98008A1102300A168A1590230A128A115230D5
:100BA8000A168A1100200A128A11831203136B088D
:100BB800C100C201C301C4014408B2004308B10026
:100BC8004208B0004108AF000A168A117D240A12B3
:100BD8008A1102300A168A1590230A128A114230A5
:100BE8000A168A1100200A128A118316031327088D
:100BF80083120313B2008316031326088312031308
:100C0800B10083160313250883120313B00083165B
:100C18000313240883120313AF000A168A117D24D4
:100C28000A128A1102300A168A1590230A128A11AA
:100C380046300A168A1100200A128A1183160313F5
:100C48002B0883120313B200831603132A08831296
:100C58000313B10083160313290883120313B0008A
:100C680083160313280883120313AF000A168A1188
:100C78007D240A128A1102300A168A1590230A1254
:100C88008A1141300A168A1100200A128A11831625
:100C98000313230883120313B200831603132208D5
:100CA80083120313B100831603132108831203135D
:100CB800B00083160313200883120313AF000A162B
:100CC8008A117D240A128A1102300A168A15902385
:100CD8000A128A11080000300A168A159A250A1283
:100CE8008A1183120313260883160313CB00831279
:100CF8000313250883160313CA0083120313240859
:100D080083160313C90083120313230883160313DE
:100D1800C80004300A168A159A250A128A11831205
:100D28000313260883160313C3008312031325082D
:100D380083160313C20083120313240883160313B4
:100D4800C10083120313230883160313C00008305D
:100D58000A168A159A250A128A118312031326087D
:100D680083160313BB00831203132508831603138A
:100D7800BA0083120313240883160313B9008312DD
:100D88000313230883160313B8000C300A168A15B8
:100D98009A250A128A11831203132608831603134D
:100DA800BF0083120313250883160313BE008312A2
:100DB8000313240883160313BD00831203132308A7
:100DC80083160313BC0010300A168A159A250A12D6
:100DD8008A1183120313260883160313B70083129C
:100DE8000313250883160313B6008312031324087C
:100DF80083160313B5008312031323088316031302
:100E0800B40014300A168A159A250A128A11831218
:100E18000313260883160313B3008312031325084C
:100E280083160313B20083120313240883160313D3
:100E3800B10083120313230883160313B00018307C
:100E48000A168A159A250A128A118312031326088C
:100E580083160313A70083120313250883160313AD
:100E6800A60083120313240883160313A500831214
:100E78000313230883160313A4001C300A168A15CB
:100E88009A250A128A11831203132308B300330820
:100E9800EB0020300A168A159A250A128A11831245
:100EA8000313260883160313AB00831203132508C4
:100EB80083160313AA00831203132408831603134B
:100EC800A90083120313230883160313A8002430F0
:100ED8000A168A159A250A128A11831203132608FC
:100EE80083160313A3008312031325088316031321
:100EF800A20083120313240883160313A10083128C
:100F08000313230883160313A000831203136B082B
:100F1800013A031D902F912F932FEA01972FEA0191
:100F28000314EA0D972F8316031337088316031744
:100F3800AB0083160313360883160317AA0083161B
:100F48000313350883160317A900831603133408FF
:100F580083160317A8008316031333088312031399
:100F6800B00083160313320883120313AF008316ED
:100F78000313310883120313AE00831603133008DA
:100F880083120313AD000A168A159D240A128A11CA
:100F9800831203132D0883160317AC00831203135F
:100FA8002E0883160317AD00831203132F08831628
:100FB8000317AE00831603133F0883160317CE00EA
:100FC800831603133E0883160317CD0083160313F5
:100FD8003D0883160317CC00831603133C088316B9
:100FE8000317CB00080007308A000408840A820728
:100FF800003409340A340034C72800308316031734
:10100800A3000130A2008630A100A030A00000306B
:10101800A7000030A6000030A5000030A400EC288E
:10102800003083160317A3000130A2008630A10008
:10103800A030A0000030A7000030A6000030A500B6
:101048000030A400EC28003083160317A3000130F9
:10105800A2008630A100A030A0000030A700003018
:10106800A6000030A5000030A400EC28003083164C
:101078000317A3009830A2009630A1008030A0008A
:101088000030A7000030A6000030A5000030A40002
:10109800EC28003083160317A3000130A200863025
:1010A800A100A030A0000030A7000030A60000304A
:1010B800A5000030A400EC28003083160317A30015
:1010C8000130A2008630A100A030A0000030A700A7
:1010D8000030A6000030A5000030A400EC28003045
:1010E80083160317A3000130A2008630A100A030A8
:1010F800A0000030A7000030A6000030A500003096
:10110800A400EC28003083160317A3000030A200C7
:101118000030A1000130A0000030A7000030A60078
:101128000030A5000030A400EC28EC28003083161D
:101138000317A3000F30A2004230A1004030A000E6
:101148000030A7000030A6000030A5000030A40041
:10115800EC28003083160317A3000030A2000030EB
:10116800A100B430A0000030A7000030A600003075
:10117800A5000A30A400EC28093083120313A0004C
:101188002008EC00EC28831203136C08413A031979
:10119800AD28033A03197328063A03196028023A5E
:1011A80003199A280F3A03194D28193A03193A28AE
:1011B800013A0319EC28033A03198628013A03195E
:1011C8001428073A031927280E3A03190128C028BA
:1011D800080083160313470883120313B00083160D
:1011E8000313460883120313AF008316031345083D
:1011F80083120313AE0083160313440883120313E8
:10120800AD00831603132B0883120313A300831660
:1012180003132A0883120313A20083160313290851
:1012280083120313A10083160313280883120313E0
:10123800A000831603133B0883120313A700831629
:1012480003133A0883120313A600831603133908FD
:1012580083120313A500831603133808831203139C
:10126800A4000A168A1110200A128A158312031381
:101278002308B4002208B3002108B2002008B100F6
:101288000A168A159D260A128A1583120313300836
:10129800E4002F08E3002E08E2002D08E100831681
:1012A8000313630983120313C1008316031364092C
:1012B80083120313C200C10A0319C20A680841074E
:1012C800C30069080318690A4207C4004308C50037
:1012D8004408C600C701C80164084802031D7E29E6
:1012E80063084702031D7E2962084602031D7E2902
:1012F80061084502031881298229B029831603133E
:101308006308831203136807C10083160313640874
:101318000318640A831203136907C2004108C30053
:101328004208C400C501C60146086402031DA62977
:1013380045086302031DA62944086202031DA62965
:10134800430861020318A929AA29B0296808E100FD
:101358006908E200E301E40100306402031DBE29CC
:1013680000306302031DBE2900306202031DBE293E
:1013780065306102031CC129C229C82983160313D9
:10138800EB010314EB0DC8297F3083160313C70044
:10139800FF30C600FF30C500FF30C40058300A16C1
:1013A8008A1100200A128A15831203136408B200F6
:1013B8006308B1006208B0006108AF000A168A111C
:1013C8007D240A128A1502300A168A1590230A12F9
:1013D8008A150800CF2A83120313350883160313CE
:1013E800CB0083120313340883160313CA00831235
:1013F8000313330883160313C90083120313320837
:1014080083160313C800F42A8312350883160313BE
:10141800C30083120313340883160313C200831214
:101428000313330883160313C1008312031332080E
:1014380083160313C000F42A831235088316031396
:10144800BB0083120313340883160313BA008312F4
:101458000313330883160313B900831203133208E6
:1014680083160313B800F42A83123508831603136E
:10147800BF0083120313340883160313BE008312BC
:101488000313330883160313BD00831203133208B2
:1014980083160313BC00F42A83123508831603133A
:1014A800B70083120313340883160313B60083129C
:1014B8000313330883160313B5008312031332088A
:1014C80083160313B400F42A831235088316031312
:1014D800B30083120313340883160313B200831274
:1014E8000313330883160313B1008312031332085E
:1014F80083160313B000F42A8312350883160313E6
:10150800A70083120313340883160313A60083125B
:101518000313330883160313A50083120313320839
:1015280083160313A400F42A83123208B60036087F
:10153800EB00F42AF42A350883160313AB00831250
:101548000313340883160313AA0083120313330802
:1015580083160313A9008312031332088316031397
:10156800A800F42A8312350883160313A3008312F4
:101578000313340883160313A200831203133308DA
:1015880083160313A100831203133208831603136F
:10159800A000F42AF42A831203136C08413A0319B1
:1015A800B62A033A0319802A063A0319682A023A26
:1015B80003199F2A0F3A0319502A193A0319382A8E
:1015C800013A0319F42A033A0319982A013A03192C
:1015D800082A073A0319202A0E3A0319EF29F42A90
:1015E8000A128A1119230A128A1508006130831613
:1015F80003138F009001FD010A168A15CD220A12E5
:101608008A150A168A153D230A128A15112B0A16FD
:101618008A11B5230A128A15112B83120313051B8D
:10162800162B172B0B2B0611871606140A168A156C
:101638000D270A128A1583120313DF01E0016008DF
:10164800803AFF0080307F02031D2C2B04305F029C
:10165800031C2F2B302B322B8E2B8E2B0E30831608
:101668000313E1000130E200831203136A08DE006D
:101678005E0883160313EC00043083120313DE00A4
:101688005E0883160313ED00620883120313A10199
:10169800A10783160313610883120313A001A0078F
:1016A8000A168A156B240A128A155B2B5B2B831288
:1016B80003136E08031D612B5B2B622B0130DF07C0
:1016C8000318E00A0030E0076008803AFF00803025
:1016D8007F02031D712B04305F02031C742B752BD2
:1016E800322B8E2B8E2B0A128A15ED200A128A15A0
:1016F8000A128A1506240A128A154E300A168A1109
:1017080000200A128A1502300A168A1590230A1236
:101718008A158E2B831603136B08031D942B772BC6
:10172800952B83120313DF01E0016008803AFF0064
:1017380080307F02031DA22B04305F02031CA52BFF
:10174800A62BA82BE52BE52BE13083160313E1002C
:101758000030E200831203136B08DE005E08831674
:101768000313EC00620883120313A101A107831677
:101778000313610883120313A001A0070A168A1530
:101788006B240A128A15C92BC92B831203136E08FE
:10179800031DCF2BC92BD02B0130DF070318E00A1C
:1017A8000030E0076008803AFF0080307F02031DA8
:1017B800DF2B04305F02031CE22BE32BA82BE52B65
:1017C800E52B831203136D08031DEB2BE52BED01AD
:1017D8006F080A168A1148250A128A1502308312E0
:1017E80003136F02031CF92BFA2BE52B0A128A113B
:1017F80015200A128A15E52BE52BE52BE52B0A1295
:101808008A1112280A168A150D250A128A158316B6
:1018180003135B0883120313C900831603135C08C0
:1018280083120313CA00CB01CC01831603134008AB
:1018380083120313C1008316031341088312031391
:10184800C20083160313420883120313C3008316CE
:101858000313430883120313C400831603134809B0
:1018680083120313C5008316031349098312031354
:10187800C600831603134A0983120313C70083168D
:1018880003134B0983120313C800C50A0319C60AB8
:101898000319C70A0319C80A4508C10746080318E7
:1018A800460F572C582CC20747080318470F5D2CC2
:1018B8005E2CC30748080318480AC4074408A30055
:1018C8004308A2004208A1004108A0004C08A70054
:1018D8004B08A6004A08A5004908A4000A168A1160
:1018E80010200A128A15831203132308CC00220839
:1018F800CB002108CA002008C9000030B000003021
:10190800AF000330AE00FF30AD004C08B4004B0808
:10191800B3004A08B2004908B1000A168A159D2684
:101928000A128A15831203133008CC002F08CB0043
:101938002E08CA002D08C90083160313480883120D
:101948000313C90783160313490803110318013E3B
:101958000319B12C83120313CA07831603134A0809
:1019680003110318013E0319BC2C83120313CB0780
:10197800831603134B0803110318013E0319C72CE0
:1019880083120313CC0783160313831203134A0825
:10199800E901E9074908E801E80757300A168A11FA
:1019A80000200A128A15831203136808AF00690819
:1019B800B000B101B2010A168A117D240A128A15F3
:1019C80002300A168A1590230A128A1500308312EB
:1019D8000313B0000030AF000330AE00E830AD00B4
:1019E8006808A0006908A100A201A30183160313D7
:1019F800270883120313A7008316031326088312EC
:101A08000313A60083160313250883120313A500E6
:101A180083160313240883120313A4000A168A11D9
:101A280010200A128A15831203132308B40022080F
:101A3800B3002108B2002008B1000A168A159D26B5
:101A48000A128A15831203132E0883160313E4015E
:101A5800E407831203132D0883160313E301E30736
:101A68000800831203134608CC004708CD00480835
:101A7800CE0003104D0D4E0DCF004F08D20049087F
:101A8800CC004A08CD004B08CE0003104D0D4E0D7A
:101A9800CF004F08D1005208031D532D642D510863
:101AA80052020318582D592D6C2D5203FF3A510735
:101AB800CC0019304C02031C622D632D6C2D642D53
:101AC8004908C6004A08C7004B08C8007A2E7A2E73
:101AD8005108031D702D802D520851020318752DD1
:101AE800762D812D5103FF3A5207CC0019304C0254
:101AF800031C7F2D802D812D7A2E0630CC004C08BA
:101B0800D000C81F882D892D8A2DD017CB1F8D2D69
:101B18008E2D8F2D5017C717FF30C605FF30C7050C
:101B28000030C805CA17FF30C905FF30CA050030A4
:101B3800CB05510852020318A22DA32DD42DA42D94
:101B480001300310C90DCA0DCB0DFF3E031DA52D95
:101B58000130D102510852060319B32DB42DCC2DF2
:101B68000130D00250080739031DBB2DBC2DA42D10
:101B7800CC2DCC2DCC2D01300310C80CC70CC60CB5
:101B8800FF3E031DC02D0130CC004C08D207CC2DE0
:101B980052085106031DD12DD22DBF2D0B2E0B2E11
:101BA800520851020318D92DDA2D0B2EDB2D0130E6
:101BB8000310C60DC70DC80DFF3E031DDC2D0130F7
:101BC800D202510852060319EA2DEB2D032E0130DB
:101BD800D00250080739031DF22DF32DDB2D032EFB
:101BE800032E032E01300310CB0CCA0CC90CFF3E88
:101BF800031DF72D0130CC004C08D107032E5208E5
:101C08005106031D082E092EF62D0B2E0B2ED01F64
:101C18000E2E0F2E202EFF30C606FF30C706FF30CF
:101C2800C8060130C607003003180130C707003066
:101C380003180130C807202E501F232E242E352EBE
:101C4800FF30C906FF30CA06FF30CB060130C9078E
:101C5800003003180130CA07003003180130CB07E1
:101C6800352ED0014608C907470803110318470A4B
:101C780003193F2ECA07480803110318480A031915
:101C8800462ECB07CB1F492E4A2E5E2EFF30C906A3
:101C9800FF30CA06FF30CB060130C90700300318F1
:101CA8000130CA07003003180130CB07D0010314F4
:101CB800D00D5E2E4908A0004A08A1004B08A200DA
:101CC8005208CC004C08A3005008CD004D08A400D1
:101CD8000A168A1583270A128A1583120313200805
:101CE800C6002108C7002208C8007A2E0800003064
:101CF80083120313B600C830B7004230B800831609
:101D080003172C0883120313B900831603172D0831
:101D180083120313BA00831603172E0883120313C2
:101D2800BB000A168A11ED220A128A1583120313C0
:101D38003608D9003708DA003808DB000030B6006A
:101D4800C830B7004230B800831603172B08831237
:101D58000313B000831603172A0883120313AF0076
:101D680083160317290883120313AE00831603177B
:101D7800280883120313AD000A168A159D240A1237
:101D88008A15831203132D08B9002E08BA002F08EC
:101D9800BB000A168A11ED220A128A158312031350
:101DA8003608D3003708D4003808D500831603173F
:101DB8004E0883120313B000831603174D088312CD
:101DC8000313AF00831603174C0883120313AE00E6
:101DD800831603174B0883120313AD000A168A15DE
:101DE8009D240A128A15831203132D08B6002E08A3
:101DF800B7002F08B8004030B9001C30BA00463090
:101E0800BB000A168A11ED220A128A1583120313DF
:101E18003608E5003708E6003808E7005908AB003F
:101E28005A08AC005B08AD006508AE006608AF0054
:101E38006708B0000A168A1118260A128A15831232
:101E480003132B08C6002C08C7002D08C800530828
:101E5800B6005408B7005508B8006508B900660808
:101E6800BA006708BB000A168A11ED220A128A1501
:101E7800831203133608C9003708CA003808CB0094
:101E88000A128A1535250A128A1583120313460881
:101E9800D6004708D7004808D8006508C600660875
:101EA800C7006708C8005608C9005708CA0058087C
:101EB800CB000A128A1535250A128A1583120313D4
:101EC800460883160317B2008312031347088316C4
:101ED8000317B30083120313480883160317B400CB
:101EE800831203136508AE006608AF006708B000E8
:101EF8005908AB005A08AC005B08AD000A168A11F5
:101F080018260A128A15831203132B08AE002C0810
:101F1800AF002D08B0000030AB000030AC004030FE
:101F2800AD000A168A1118260A128A15831203139D
:101F38002B08C9002C08CA002D08CB006508C6006C
:101F48006608C7006708C8000A128A1535250A12EC
:101F58008A15831203134608A8004708A9004808F1
:101F6800AA000A168A15F7220A128A158312031381
:101F7800280883160317B50083120313290883164C
:101F88000317B600831203132A0883160317B70032
:101F9800831203135908AB005A08AC005B08AD0064
:101FA8006508AE006608AF006708B0000A168A1117
:101FB80018260A128A15831203132B08831603178F
:101FC800B800831203132C0883160317B900831271
:101FD80003132D0883160317BA0000308316031362
:101FE800D8006130D9004430DA005808D5005908C3
:101FF800D6005A08D700080083120313A00004284B
:1020080083160313981C09280A2804280B2883120E
:102018000313200899000800003083120313AC0052
:102028000030AB000030AA000030A9001B28201C9B
:102038001E281F2837282408A90725080311031874
:10204800013E03192828AA07260803110318013E90
:1020580003192F28AB07270803110318013E03199A
:102068003628AC0737280130A8000310A40DA50DA9
:10207800A60DA70DA80B392801300310A30CA20C3C
:10208800A10CA00CFF3E031D4128230822042104B3
:102098002004031D502851281B2852282C08A3006F
:1020A8002B08A2002A08A1002908A0005B28080024
:1020B80083120313AA01A71F622863287228A409A0
:1020C800A509A609A709A40A0319A50A0319A60AB6
:1020D8000319A70AAA010314AA0D7228A31F7528B9
:1020E80076288228A009A109A209A309A00A031930
:1020F800A10A0319A20A0319A30A822823082204A1
:1021080021042004031989288A28D428A901031442
:10211800A90D9C280130A8000310A00DA10DA20D47
:10212800A30DA80B90280130A8002808A9079C280F
:10213800A31F9F28A0288E28A228A22823082702A8
:10214800031DB02822082602031DB02821082502F5
:10215800031DB02820082402031CB328B428C32870
:102168002008A4022108031C210FA5022208031C31
:10217800220FA6022308031C230FA702C32801303D
:102188000310A30CA20CA10CA00CFF3E031DC42835
:102198000130A902031DD128D228A228D428D42886
:1021A8002A08031DD828E428A409A509A609A7090F
:1021B800A40A0319A50A0319A60A0319A70AE428F9
:1021C8002708A3002608A2002508A1002408A000CB
:1021D800ED280800831203132808AC002908AD0075
:1021E8002A08AE0003102D0D2E0DAF002F08B500E4
:1021F800B508031D002901290B290030AB00003068
:10220800AA000030A9000030A800932993292808C3
:10221800AC002908AD002A08AE0017300310AE0C38
:10222800AD0CAC0CFF3E031D12292C08AF002F0883
:10223800B000A917FF30A805FF30A9050030AA058E
:102248002808B1002908B2002A08B300B4018E306A
:10225800B502B51F3029312956293508803A8F3EF5
:1022680003183729382943290030AB000030AA0069
:102278000030A9000030A800932993294329013090
:102288000310B40CB30CB20CB10CFF3E031D44296F
:102298000130AC002C08B507031D532954294329E4
:1022A8007A297A2918303502031C5B295C2973299D
:1022B8000030AB000030AA000030A9000030A800B0
:1022C8009329932973290130AC000310B10DB20D85
:1022D800B30DB40DAC0B69290130B5027329B508EB
:1022E800031D7729782967297A297A293008031D57
:1022F8007E298A29B109B209B309B409B10A0319B7
:10230800B20A0319B30A0319B40A8A293408AB00BC
:102318003308AA003208A9003108A8009329080048
:1023280083120313AA01A31F9A299B29AA29A0098A
:10233800A109A209A309A00A0319A10A0319A20A5B
:102348000319A30AAA010314AA0DAA29A71FAD29D4
:10235800AE29BE29A409A509A609A709A40A031933
:10236800A50A0319A60A0319A70A0130A800280814
:10237800AA06BE290030AE000030AD000030AC0027
:102388000030AB0023082204210420040319CD29BE
:10239800CE29222AA9010314A90DE0290130A80099
:1023A8000310A00DA10DA20DA30DA80BD429013077
:1023B800A8002808A907E029A31FE329E429D229AE
:1023C800E629E6290130A8000310AB0DAC0DAD0DD0
:1023D800AE0DA80BE82923082702031DFD292208B2
:1023E8002602031DFD2921082502031DFD292008B9
:1023F8002402031C002A012A112A2008A402210809
:10240800031C210FA5022208031C220FA602230881
:10241800031C230FA7022B14112A01300310A30C4D
:10242800A20CA10CA00CFF3E031D122A0130A90228
:10243800031D1F2A202AE629222A222A2A08031DE8
:10244800262A322AAB09AC09AD09AE09AB0A031931
:10245800AC0A0319AD0A0319AE0A322A2E08A300E2
:102468002D08A2002C08A1002B08A0003B2A080078
:1024780083120313BD000030BB000030BA000030E7
:10248800B9000030B800BC01AF2A3C083D07B100D4
:1024980031088400303083170002031C542A552A5F
:1024A800AA2A3C083D07B100310884003A300002EE
:1024B80003185F2A602AAA2A0030A3000030A2006D
:1024C8000030A1000A30A0003B08A7003A08A60087
:1024D8003908A5003808A4000A168A1110200A161F
:1024E8008A11831203132308BB002208BA002108AB
:1024F800B9002008B8003C083D07B1003108840045
:1025080083170008D03EB200FF3003180030B30034
:102518003208B4003308B500B601B7013408B8076B
:10252800350803110318013E03199B2AB907360819
:1025380003110318013E0319A22ABA073708031129
:102548000318013E0319A92ABB07AA2A0130B100C2
:102558003108BC07AF2A3C083D07B10031088400A8
:1025680083178008031DB92ABA2A492ABB2A3D08BD
:10257800840000082D3A031DC22AC32AE32AFF302B
:10258800A300FF30A200FF30A100FF30A0003B08ED
:10259800A7003A08A6003908A5003808A4000A16BA
:1025A8008A1110200A168A11831203132308BB000C
:1025B8002208BA002108B9002008B800E32A3B081D
:1025C800B0003A08AF003908AE003808AD00EC2A70
:1025D8000800831203133908BC003A08BD003B0801
:1025E800BE0003103D0D3E0DBF003F08C400C408E7
:1025F800031DFF2A002B082B0030B6000030B7005F
:102608000030B800B42BB42B3608BC003708BD0026
:102618003808BE0003103D0D3E0DBF003F08C50041
:10262800C508031D182B192B212B0030B6000030CC
:10263800B7000030B800B42BB42B0030C100003014
:10264800C2000030C30089304507BC003C08C40202
:102658003908BC003A08BD003B08BE001030031022
:10266800BE0CBD0CBC0CFF3E031D332B3C08BF0049
:102678003F08C5003608BC003708BD003808BE0052
:1026880010300310BE0CBD0CBC0CFF3E031D452BC7
:102698003C08BF003F08C5068030BC003C08C505A3
:1026A800BA17FF30B905FF30BA050030BB05B717B8
:1026B800FF30B605FF30B7050030B8051830BC004C
:1026C8003C08C000672B01300310C10DC20DC30DBB
:1026D800FF3E031D682B38083B02031D792B370882
:1026E8003A02031D792B36083902031C7C2B7D2BFB
:1026F800892B3608B9023708031C370FBA02380885
:10270800031C380ABB024114892B01300310B90D90
:10271800BA0DBB0DFF3E031D8A2B0130C002031DFD
:10272800962B972B672B982B4108A0004208A100F5
:102738004308A2004408BC003C08A3004508BD00AB
:102748003D08A4000A168A1583270A168A118312DF
:1027580003132008B6002108B7002208B800B42BDC
:1027680008000A168A1550250A168A1183160317B7
:10277800410883120313C5004508EC00C60109305F
:102788004602031CC82BC92BCB2BE22BE22B460895
:10279800013EC13E840083170008C5004608C13EBB
:1027A8008400450880000130C5004508C607093087
:1027B8004602031CE02BE12BCB2BE22BC1300A167F
:1027C8008A113C220A168A118312031330088316D1
:1027D8000313AF00831203132F0883160313AE00ED
:1027E800831203132E0883160313AD0083120313F9
:1027F8002D0883160313AC000A128A1500200A1646
:102808008A11831203136C08093A031D0C2C0D2C32
:102818001C2C43300A168A1100200A168A1102302D
:102828000A168A1590230A168A117C2C7C2C7C2C7B
:10283800831203136C08513A031D232C242C2A2CD1
:102848000A128A11D8240A168A117C2C83160313BB
:102858002F0883120313A300831603132E08831271
:102868000313A200831603132D0883120313A10078
:10287800831603132C0883120313A0000A168A1563
:10288800E4250A168A11003A03194B2C4C2C5B2CB0
:1028980045300A168A1100200A168A1102300A16D3
:1028A8008A1590230A168A117C2C7C2C7C2C831682
:1028B80003132F0883120313B500831603132E087E
:1028C80083120313B400831603132D088312031312
:1028D800B300831603132C0883120313B2000A12E1
:1028E8008A15EE210A168A117C2C7C2C7C2C7C2CD7
:1028F800080037308400CF3083120313B300040874
:10290800B4000830B5003308840083170008B60007
:10291800B30A34088400831336088000B40AB50B60
:10292800872C0730BF000030C000B21F9C2C9D2CA4
:10293800B12C2D300A168A1100200A168A1183122A
:102948000313AF09B009B109B209AF0A0319B00AF4
:102958000319B10A0319B20A092D2B300A168A1174
:1029680000200A168A11092D092D0030831203133D
:10297800A3000030A2000030A1000A30A0003208F5
:10298800A7003108A6003008A5002F08A4000A16E1
:102998008A115C200A168A11831203132008303E1C
:1029A800B3003F08373E84003308831380000030AB
:1029B800A3000030A2000030A1000A30A0003208B5
:1029C800A7003108A6003008A5002F08A4000A16A1
:1029D8008A1194210A168A11831203132308B2005C
:1029E8002208B1002108B0002008AF00FF30BF075F
:1029F8000318C00AFF30C00740083F04031D052D17
:102A0800062D092D142D142D092D831203133208B8
:102A1800310430042F04031D122D132DB92C142D4D
:102A2800BF01C0014008803AFF0080307F02031DCB
:102A38001F2D08303F02031C222D232D252D472D45
:102A4800472D831203133F08373E84008313000881
:102A58000A168A1100200A168A11013083120313FC
:102A6800BF070318C00A0030C0074008803AFF00BB
:102A780080307F02031D422D08303F02031C452D84
:102A8800462D252D472D080083120313CF000A1267
:102A98008A1506240A168A110A128A15ED200A16C2
:102AA8008A11831203136109CD006209CE00CD0A91
:102AB8000319CE0A68084D0783160313E900831229
:102AC800031369080318690A4E0783160313EA00FB
:102AD8000A2E831603136A0883120313A901A90790
:102AE80083160313690883120313A801A8070A169B
:102AF8008A15B5230A168A11831203132808831628
:102B08000313CF0083120313290883160313D0007D
:102B1800831203132A0883160313D100013083128A
:102B28000313CD004D08EF07172E831603134F0824
:102B3800D2005008D3005108D4006A088312031346
:102B4800A901A90783160313690883120313A801AF
:102B5800A8070A168A15B5230A168A1183120313C1
:102B6800280883160313CF0083120313290883163A
:102B78000313D000831203132A0883160313D1000A
:102B8800013083120313CD004D08EF07172E83166B
:102B98000313520883160317AF0083160313530851
:102BA80083160317B00083160313540883160317FC
:102BB800B100831603134F08D2005008D300510800
:102BC800D4006A0883120313A901A9078316031303
:102BD800690883120313A801A8070A168A15B523E2
:102BE8000A168A1183120313280883160313CF00C9
:102BF80083120313290883160313D00083120313C7
:102C08002A0883160313D100172E172E83120313D5
:102C18004F08003A03196D2D013A0319992D033A0B
:102C28000319CB2D172E0800831203132B08B100AC
:102C38002C08B2002D08B3000310320D330DB40078
:102C48003408B500B508031D2A2E2B2E332E00306C
:102C5800AB000030AC000030AD00052F052F2E086A
:102C6800B1002F08B2003008B3000310320D330D45
:102C7800B4003408BA00BA08031D432E442E4C2E63
:102C88000030AB000030AC000030AD00052F052F40
:102C98003A087B3EB1003108B5072B08B1002C0873
:102CA800B2002D08B30010300310B30CB20CB10CF5
:102CB800FF3E031D582E3108B4003408BA002E0810
:102CC800B1002F08B2003008B30010300310B30C65
:102CD800B20CB10CFF3E031D6A2E3108B400340853
:102CE800BA068030B1003108BA05AC17AF17FF300B
:102CF800AE05FF30AF050030B0050030B60000303B
:102D0800B7000030B8000730B1003108B9008C2E88
:102D18002B1C8F2E902EA12E2E08B6072F080311DC
:102D280003182F0A0319992EB7073008031103183F
:102D3800300A0319A02EB807A12E01300310AD0CDC
:102D4800AC0CAB0CFF3E031DA22E01300310AE0DE0
:102D5800AF0DB00DFF3E031DAA2E0130B902031DB1
:102D6800B62EB72E8C2EB82E0930B1003108B90016
:102D7800BD2E2B1CC02EC12ED22E2E08B6072F0812
:102D8800031103182F0A0319CA2EB70730080311B5
:102D98000318300A0319D12EB807D22E01300310B8
:102DA800AD0CAC0CAB0CFF3E031DD32E0130031051
:102DB800B80CB70CB60CFF3E031DDB2E0130B90270
:102DC800031DE72EE82EBD2EE92E3608A000370891
:102DD800A1003808A2003508B1003108A3003A085C
:102DE800B2003208A4000A168A1583270A168A1127
:102DF800831203132008AB002108AC002208AD00A1
:102E0800052F08000B1D092F0A2F212F8B1E0D2FB0
:102E18000E2F212F063081000130F0007008FD07C9
:102E28007D08193A031D192F1A2F1F2FED010314BE
:102E3800ED0DFD011F2F0B11212F831603130D1C00
:102E4800262F272FCF2F831203130D1C2C2F2D2F46
:102E5800CF2F831603136608E801E8076508E70122
:102E6800E707831203131C08F000F1017008F10052
:102E7800F0011B08700783160313E5007108031897
:102E8800710AE6006709F0006809F100F00A031901
:102E9800F10A65087007DD0066080318660A7107FD
:102EA800DE00572F572F7C08F0007007903E8400F3
:102EB8005D0883178000840A5E08800007307C0262
:102EC8000318672F682F6D2F0130F0007008FC077A
:102ED8006F2FFC016F2F0030C7000030C600003094
:102EE800C5000030C400FB0108307B02031C7D2FA5
:102EF8007E2F802FB22FB22F7B08F0007007903EF4
:102F080084000008F100840A0008F2007108F30048
:102F18007208F400F501F6017308C4077408031178
:102F28000318013E0319992FC507750803110318E3
:102F3800013E0319A02FC607760803110318013EA6
:102F48000319A72FC7070130F0007008FB070830E6
:102F58007B02031CB02FB12F802FB22F4408F00042
:102F68004508F1004608F2004708F3000330F40072
:102F7800730DF30CF20CF10CF00CF40BBC2F73086E
:102F8800C7007208C6007108C5007008C400831223
:102F980003130D10CF2F83128C1CD32FD42FF42F93
:102FA800831603138C1CD92FDA2FF42F83120313E3
:102FB8008C1091010A168A153B240A168A11831669
:102FC80003138C14831203136E08013A031DED2FAB
:102FD800EE2FF22F861191011211F22F8C10F42F7F
:102FE8007A088312FF0079088A0078088400770E2F
:082FF8008300FE0E7E0E0900AD
:1035420064008001840A0406031900340406A22AD6
:103552003034303430343034303430343034303449
:103562000530831203139F008030831603139F00DC
:1035720008008316031381128111033081000116A2
:103582008B160800831603136C0883120313031DA2
:10359200861403198610080046308316031385002B
:1035A200203086008330870002308316031788009C
:1035B2008901080005308312031390008E018F01E8
:1035C200101404309D000D10831603130D1408000F
:1035D200831603136E08920083120313910183165C
:1035E20003138C148312031312150800831203139E
:1035F2002A08290428040319FF2A002B032B8030F0
:10360200AA06032B042B0800053083120313920031
:103612001215831603138C14831203139101FF30C6
:103622008316031392000B178B17080083160313DC
:103632006D08023A031D1E2B1F2B242B831203132A
:1036420086130617282B83120313861706130616F2
:1036520008007E088A007F0882000A168A152A233B
:103662000A168A158000840A04087D0603190034AC
:10367200FF0A0319FE0A2E2B83160313871707135B
:1036820018158316031787118316031318121813BC
:1036920098168312031318169817193083160313FA
:1036A20099009A010800831603138C169115592B61
:1036B20083128C1E5D2B5E2B592B5F2B1A08A000E8
:1036C2002008A10098108C12831603139111831203
:1036D200031321086C2B080083120313A100210895
:1036E200831203178D000130831603178C008C138D
:1036F2000C147B2B0C187E2B7F2B7B2B802B8312A5
:1037020003170C0883120313A0002008A2008316DB
:1037120003170C108312031322088F2B0800831245
:103722000313A200A72B220884000A128A11F7278A
:103732000A168A150A168A1100200A168A150130FD
:1037420083120313A1002108A207A72B22088400D9
:103752000A128A11F7270A168A150038031DB22B9E
:10376200B32B942BB42B080083120313AD01A91FB2
:10377200BB2BBC2BC52BA809A909A80A0319A90AA6
:10378200AD010314AD0DC52B2808A0002908A10026
:10379200A2018E30AB002B08A3002D08AC002C0830
:1037A200A4000A168A1583270A168A1583120313A0
:1037B2002008A8002108A9002208AA00E02B08007E
:1037C20083120313A1002108831203178D008312B1
:1037D20003132008831203178C00831603178C012E
:1037E2000C158B1355308D00AA308D008C148B175D
:1037F2000C11FB2B8C18FE2BFF2BFB2B83120313BC
:103802000D1E042C052C0A2C0D1201300D2C0D2C32
:103812000D2C00300D2C0D2C0800FC01FD01831332
:103822006130840070300A168A15A1220A168A15A0
:10383200A0308400F0300A168A15A1220A168A15D1
:10384200831790308400CF300A168A15A1220A16F7
:103852008A15D730FD001A30FE00A930FF00CF30A4
:1038620084000A168A152E230A168A1583010A1263
:103872008A15FA2A8316031360085F040319422C7F
:10388200432C6A2C6F08031D472C4C2CEF0183122A
:1038920003138611552C83160313EF010314EF0D46
:1038A200831203138615552C013083160313DF028E
:1038B2000030031CE003E00260085F04031D622C79
:1038C200632C6A2C83120313EE010314EE0D6A2C8F
:1038D2006A2C0800831203132108A3002008A20007
:1038E2000130FF000310A20DA30DFF0B732C220861
:1038F20083160313DF0083120313230883160313B3
:10390200E000C83083120313A200220883160313B7
:10391200EE000A168A1517230A168A150A168A1540
:10392200C3220A168A150A168A15E9220A168A1568
:1039320083120313EE0108008E3083120313B100C9
:103942003108B200B22C01300310B00CAF0CAE0C37
:10395200AD0CFF3E031DA52C0130B1003108B207AA
:10396200B22CFF303005031DB72CB82CA42CB92C77
:103972002D08A0002E08A1002F08A2003208B100D5
:103982003108A300A4010A168A1583270A168A158C
:10399200831203132008AD002108AE002208AF00F5
:1039A200D22C080083120313AA010314AA0D0330B8
:1039B200A7002708A607A901FD2C2208A7002708AF
:1039C200A00026080A168A15E1230A168A15831210
:1039D2000313A8002808AA000130A6020830031029
:1039E200A50CA40CA30CA20CFF3E031DF02C01306D
:1039F200A7002708A907FD2C043029020318022D6D
:103A0200032D0A2DAA08031D072D082DDE2C0A2DD1
:103A12000A2D2A080C2D0800831203130C131F14FD
:103A220000000000000000000000000083120313E9
:103A32009F141B2D0C1F1E2D1F2D1B2D0C131F1031
:103A42001E08A000A101200883160313DB008312C5
:103A52000313210883160313DC0008300310DB0D67
:103A6200DC0DFF3E031D2F2D1E0883120313A00041
:103A7200A101200883160313DB070318DC0A831253
:103A82000313210883160313DC07FF305B05DB00F9
:103A920003305C05DC00831203130C130800831649
:103AA20003139115303083120313A2002208A400DD
:103AB200A3010A168A1554230A168A1583120313C0
:103AC200A2002208A400832D0930230203186A2DC4
:103AD2006B2D782D2408A2002308C13E8400220801
:103AE200831780000130A2002208A307782D0A164E
:103AF2008A1554230A168A1583120313A200220878
:103B0200A400832D24080A3A0319882D892D912DAA
:103B120024080D3A031D8E2D8F2D652D912D912D8B
:103B22002308C13E84008317800183160313911179
:103B3200080083120313AB000030AF000030AE0068
:103B42000030AD000030AC00B00104303002031C84
:103B5200AB2DAC2DAE2DDA2DDA2D0830A7000310D7
:103B6200AC0DAD0DAE0DAF0DA70BB02D2B080A1687
:103B72008A156D230A168A1583120313A700A8015A
:103B8200A901AA012708AC042808AD042908AE043B
:103B92002A08AF040130A7002708AB070130A700AD
:103BA2002708B00704303002031CD82DD92DAE2DC2
:103BB200DA2D2F08A6002E08A5002D08A4002C0837
:103BC200A300E32D080083120313230883160317AF
:103BD2002302031D022E83120313220883160317E6
:103BE2002202031D022E83120313210883160317D8
:103BF2002102031D022E83120313200883160317CA
:103C02002002031C052E062E272E270883120313DB
:103C12002302031D222E8316031726088312031381
:103C22002202031D222E8316031725088312031373
:103C32002102031D222E8316031724088312031365
:103C420020020318252E262E2B2E272E01302E2E53
:103C52002E2E2E2E00302E2E2E2E0800831203130F
:103C6200AA1F342E352E5B2E0030AE000030AF007E
:103C72008030B0002809B1002909B2002A09B30036
:103C8200B10A0319B20A0319B30A3108AE0732089E
:103C92000318320F4D2E4E2EAF0733080318330F81
:103CA200532E542EB0072E08A8002F08A900300862
:103CB200AA005B2EAD1F5E2E5F2E852E0030AE0059
:103CC2000030AF008030B0002B09B1002C09B200E7
:103CD2002D09B300B10A0319B20A0319B30A310854
:103CE200AE0732080318320F772E782EAF0733084B
:103CF2000318330F7D2E7E2EB0072E08AB002F083F
:103D0200AC003008AD00852E8030AA068030AD06AA
:103D12002D082A02031D932E2C082902031D932E1F
:103D22002B0828020318962E972E992E03109C2EEC
:103D320003149C2E9C2E0800003083120313B9003A
:103D42000030B8000030B7000030B60030082F0451
:103D52002E042D040319AE2EAF2E032FBA01031425
:103D6200BA0DC12E0130B5000310AD0DAE0DAF0D71
:103D7200B00DB50BB52E0130B5003508BA07C12E0E
:103D8200B01FC42EC52EB32EC72EC72E0130B500CC
:103D92000310B60DB70DB80DB90DB50BC92E30080D
:103DA2003402031DDE2E2F083302031DDE2E2E08E1
:103DB2003202031DDE2E2D083102031CE12EE22EFB
:103DC200F22E2D08B1022E08031C2E0FB2022F086C
:103DD200031C2F0FB3023008031C300FB402361439
:103DE200F22E01300310B00CAF0CAE0CAD0CFF3E46
:103DF200031DF32E0130BA02031D002F012FC72E1F
:103E0200032F032F3908B0003808AF003708AE007F
:103E12003608AD000C2F08000A168A15B1220A16C0
:103E22008A150A128A116F260A168A150A168A1527
:103E3200BA220A168A150A168A15DB220A168A156A
:103E42000A168A1505230A168A150A128A157B266E
:103E52000A168A1583120313EF01EE010314EE0D05
:103E620083160313230883120313A3008316031379
:103E7200220883120313A20083160313210883125C
:103E82000313A10083160313200883120313A00057
:103E92000030A7000030A6000030A5001230A400B8
:103EA2000A168A1110200A168A1583120313230890
:103EB200B0002208AF002108AE002008AD000A16AB
:103EC2008A159D240A168A15831203132D08831658
:103ED2000313CC00831203132E0883160313CD00A1
:103EE200831203132F0883160313CE00EB01FC0188
:103EF200C83083120313DC005C088B04831603139F
:103F02008C140800831203132308031D892F912F99
:103F1200220821042004031D8F2F902FA72F912FF9
:103F22000030A0000030A1000030A200FF2FFF2FC0
:103F3200A72F0130A5002508A30701300310A20C0A
:103F4200A10CA00CFF3E031D9F2FA72FFE302205C0
:103F5200031DAC2FAD2F9A2FC52FC52F0130A50001
:103F62002508A3070130A007003003180130A1077C
:103F7200003003180130A20701300310A20CA10C7B
:103F8200A00CFF3E031DBE2FFF302205031DCA2FCA
:103F9200CB2FAF2FD82FD82F0130A302013003101F
:103FA200A00DA10DA20DFF3E031DD02FD82FA11FE2
:103FB200DB2FDC2FCD2F2318DF2FE02FE62FFF3052
:103FC200A0057F30A105FF30A2050310A30C230832
:103FD200A500A601A70110300310A50DA60DA70D7F
:103FE200FF3E031DED2F2508A0042608A104270883
:0E3FF200A2042408031DFE2FFF2FA2170800B3
:04400E0084E3FFFE4A
:00000001FF
